:100000000C942A000C94E9000C9447000C944700CF
:100010000C9447000C9447000C9428020C94F801AF
:100020000C9447000C94D3010C948E010C944D0158
:100030000C9447000C9447000C9447000C94470024
:100040000C9410010C9447000C9447000C9447004A
:100050000C94470011241FBECFE5D8E0DEBFCDBF12
:1000600010E0A0E6B0E0E8ECF6E002C005900D92EA
:10007000AC37B107D9F720E0ACE7B0E001C01D9282
:10008000A03CB207E1F70E9449000C9462030C9473
:1000900000000E948D0281E00E94DD000E94110399
:1000A0008AE10E947500082F8BE10E947500182FCD
:1000B0008CE10E947500D82F8DE10E947500C82F39
:1000C000011103C08AE00E942103111103C084E1E1
:1000D0000E942103D11103C08EE10E942103C111AE
:1000E000DFCF88E20E942103DBCF1F93CF93DF9302
:1000F00000D0CDB7DEB7182F81E089831A82BE0108
:100100006F5F7F4F812F0E949C0006C0BE016E5F13
:100110007F4F812F0E949C008A818823B9F38FE34F
:100120009CE90197F1F700C0000089810F900F90C2
:10013000DF91CF911F910895982F9695969596955A
:100140008770913099F028F09230E9F0933041F1C6
:10015000089529B330E0A90102C0559547958A95C5
:10016000E2F7CA018170FB018083089526B330E075
:10017000A90102C0559547958A95E2F7CA01817099
:10018000FB018083089523B330E0A90102C0559597
:1001900047958A95E2F7CA018170FB018083089533
:1001A00020B330E0A90102C0559547958A95E2F742
:1001B000CA018170FB0180830895882331F081306A
:1001C00039F48FB780688FBF08958FB78F778FBF4F
:1001D00008951F920F920FB60F9211242F933F9301
:1001E0004F935F936F937F938F939F93AF93BF933F
:1001F000EF93FF93E0918C00F0918D000995FF91B2
:10020000EF91BF91AF919F918F917F916F915F918E
:100210004F913F912F910F900FBE0F901F90189507
:100220001F920F920FB60F9211242F933F934F936B
:100230005F936F937F938F939F93AF93BF93EF934E
:10024000FF9324B135B1A8E8B3E10E9448032FEF32
:1002500033E040E050E00E94260320937C0030937E
:100260007D0040937E0050937F00E091AA00F091C2
:10027000AB00309709F00995FF91EF91BF91AF91D5
:100280009F918F917F916F915F914F913F912F91AE
:100290000F900FBE0F901F9018951F920F920FB6E0
:1002A0000F9211242F933F934F935F936F937F93FC
:1002B0008F939F93AF93BF93EF93FF9380918200AF
:1002C0008F5F8093820090E0A0E0B0E04091BC009E
:1002D0005091BD006091BE007091BF0084179507DA
:1002E000A607B70751F4E091A000F091A10009958D
:1002F000109282008091B80082BFFF91EF91BF9170
:10030000AF919F918F917F916F915F914F913F91AD
:100310002F910F900FBE0F901F9018951F920F9264
:100320000FB60F9211242F933F934F935F936F93C8
:100330007F938F939F93AF93BF93EF93FF9380919E
:1003400081008F5F809381008FEF8CBF809181004F
:1003500090E0A0E0B0E04091BC005091BD00609101
:10036000BE007091BF0084179507A607B70751F428
:10037000E0919E00F0919F0009951092810080917C
:10038000B8008CBFFF91EF91BF91AF919F918F917A
:100390007F916F915F914F913F912F910F900FBE81
:1003A0000F901F9018951F920F920FB60F92112465
:1003B0008F939F93AF93BF938091B4009091B500BA
:1003C000A091B600B091B7000196A11DB11D809318
:1003D000B4009093B500A093B600B093B700BF915E
:1003E000AF919F918F910F900FBE0F901F90189516
:1003F0001F920F920FB60F9211242F933F934F939A
:100400005F936F937F938F939F93AF93BF93EF937C
:10041000FF93809180008F5F80938000813039F45A
:10042000E0919800F0919900099510928000FF9159
:10043000EF91BF91AF919F918F917F916F915F915C
:100440004F913F912F910F900FBE0F901F901895D5
:100450001F920F920FB60F9211242F933F934F9339
:100460005F936F937F938F939F93AF93BF93EF931C
:10047000FF9380918B008F5F80938B008130C1F45C
:1004800086B597B5A0E0B0E0809387009093880090
:10049000A0938900B0938A001092B4001092B50026
:1004A0001092B6001092B7008EB58F7B8EBD24C01F
:1004B000823011F5E6B5F7B52091B4003091B50062
:1004C0004091B6005091B700AFEFBFEF0E945703C5
:1004D000DC01CB018E0F9F1FA11DB11D80938300F6
:1004E00090938400A0938500B09386008EB58064BD
:1004F0008EBD89B78F7D89BFFF91EF91BF91AF917D
:100500009F918F917F916F915F914F913F912F912B
:100510000F900FBE0F901F90189590E07EC0E92FAE
:10052000F0E0EE0FFF1FE05AFF4F8081282F269545
:1005300026952695877031813323B9F1313009F042
:100540006BC0213089F028F02230C9F0233011F13E
:1005500063C04AB321E030E002C0220F331F8A9506
:10056000E2F7242B2ABB58C047B321E030E002C099
:10057000220F331F8A95E2F7242B27BB4DC044B3CB
:1005800021E030E002C0220F331F8A95E2F7242BCE
:1005900024BB42C041B321E030E002C0220F331F30
:1005A0008A95E2F7242B21BB37C0213091F028F047
:1005B0002230D9F0233029F12FC04AB321E030E0B6
:1005C00002C0220F331F8A95E2F7209524232ABB0D
:1005D00023C047B321E030E002C0220F331F8A95C9
:1005E000E2F72095242327BB17C044B321E030E075
:1005F00002C0220F331F8A95E2F72095242324BBE3
:100600000BC041B321E030E002C0220F331F8A95B6
:10061000E2F72095242321BB9F5F9E3008F47FCF13
:1006200008958DB180658DB98DB18B7F8DB98DB1F8
:10063000877F8DB98DB18F7D8DB98DB18F778DB954
:1006400008958FB9779BFECF8FB10895A1E21A2E3E
:10065000AA1BBB1BFD010DC0AA1FBB1FEE1FFF1F66
:10066000A217B307E407F50720F0A21BB30BE40BB6
:10067000F50B661F771F881F991F1A9469F76095FD
:100680007095809590959B01AC01BD01CF010895B7
:10069000A29FB001B39FC001A39F700D811D1124C3
:1006A000911DB29F700D811D1124911D08950E940E
:1006B0004803A59F900DB49F900DA49F800D911DA0
:0806C00011240895F894FFCF06
:1006C8000C010D010E000F010101020103010401DB
:0C06D800050106011A001B001C001D009B
:00000001FF
